{
  "contractName": "TradeExecutor",
  "abi": [
    {
      "inputs": [
        {
          "internalType": "contract IERC20",
          "name": "_DAI",
          "type": "address"
        },
        {
          "internalType": "address",
          "name": "_owner",
          "type": "address"
        },
        {
          "internalType": "address",
          "name": "_weth",
          "type": "address"
        },
        {
          "internalType": "contract IUniswapV2Router02",
          "name": "_UniswapRouter",
          "type": "address"
        }
      ],
      "stateMutability": "nonpayable",
      "type": "constructor"
    },
    {
      "anonymous": false,
      "inputs": [
        {
          "indexed": false,
          "internalType": "uint256",
          "name": "value",
          "type": "uint256"
        },
        {
          "indexed": false,
          "internalType": "address",
          "name": "sender",
          "type": "address"
        }
      ],
      "name": "receiveether",
      "type": "event"
    },
    {
      "stateMutability": "payable",
      "type": "fallback"
    },
    {
      "inputs": [],
      "name": "UniswapRouter",
      "outputs": [
        {
          "internalType": "contract IUniswapV2Router02",
          "name": "",
          "type": "address"
        }
      ],
      "stateMutability": "view",
      "type": "function"
    },
    {
      "inputs": [],
      "name": "WETH",
      "outputs": [
        {
          "internalType": "address",
          "name": "",
          "type": "address"
        }
      ],
      "stateMutability": "view",
      "type": "function"
    },
    {
      "inputs": [],
      "name": "time",
      "outputs": [
        {
          "internalType": "uint256",
          "name": "",
          "type": "uint256"
        }
      ],
      "stateMutability": "view",
      "type": "function"
    },
    {
      "stateMutability": "payable",
      "type": "receive"
    },
    {
      "inputs": [],
      "name": "execute",
      "outputs": [],
      "stateMutability": "nonpayable",
      "type": "function"
    },
    {
      "inputs": [],
      "name": "makeInactive",
      "outputs": [],
      "stateMutability": "nonpayable",
      "type": "function"
    },
    {
      "inputs": [
        {
          "internalType": "contract IERC20",
          "name": "_token",
          "type": "address"
        },
        {
          "internalType": "uint256",
          "name": "amount",
          "type": "uint256"
        }
      ],
      "name": "withdrawToken",
      "outputs": [],
      "stateMutability": "nonpayable",
      "type": "function"
    },
    {
      "inputs": [
        {
          "internalType": "uint256",
          "name": "amount",
          "type": "uint256"
        }
      ],
      "name": "withdrawETH",
      "outputs": [],
      "stateMutability": "nonpayable",
      "type": "function"
    }
  ],
  "bytecode": "0x60806040523480156200001157600080fd5b5060405162001680380380620016808339818101604052810190620000379190620001c4565b600160008190555083600260006101000a81548173ffffffffffffffffffffffffffffffffffffffff021916908373ffffffffffffffffffffffffffffffffffffffff16021790555082600460006101000a81548173ffffffffffffffffffffffffffffffffffffffff021916908373ffffffffffffffffffffffffffffffffffffffff16021790555080600160006101000a81548173ffffffffffffffffffffffffffffffffffffffff021916908373ffffffffffffffffffffffffffffffffffffffff16021790555081600360006101000a81548173ffffffffffffffffffffffffffffffffffffffff021916908373ffffffffffffffffffffffffffffffffffffffff160217905550620546004262000154919062000230565b6005819055506001600460156101000a81548160ff0219169083151502179055505050505062000370565b600081519050620001908162000322565b92915050565b600081519050620001a7816200033c565b92915050565b600081519050620001be8162000356565b92915050565b60008060008060808587031215620001db57600080fd5b6000620001eb8782880162000196565b9450506020620001fe878288016200017f565b935050604062000211878288016200017f565b92505060606200022487828801620001ad565b91505092959194509250565b60006200023d82620002e9565b91506200024a83620002e9565b9250827fffffffffffffffffffffffffffffffffffffffffffffffffffffffffffffffff03821115620002825762000281620002f3565b5b828201905092915050565b60006200029a82620002c9565b9050919050565b6000620002ae826200028d565b9050919050565b6000620002c2826200028d565b9050919050565b600073ffffffffffffffffffffffffffffffffffffffff82169050919050565b6000819050919050565b7f4e487b7100000000000000000000000000000000000000000000000000000000600052601160045260246000fd5b6200032d816200028d565b81146200033957600080fd5b50565b6200034781620002a1565b81146200035357600080fd5b50565b6200036181620002b5565b81146200036d57600080fd5b50565b61130080620003806000396000f3fe6080604052600436106100745760003560e01c80639e281a981161004e5780639e281a981461010f578063ad5c464814610138578063c7639d8014610163578063f14210a61461018e576100b4565b806316ada547146100b657806342217bc5146100e157806361461954146100f8576100b4565b366100b4577fe41dd5a05e64802c44eb364f28059ead07e62ec5878c9abc128df6c2235b6d9034336040516100aa929190611029565b60405180910390a1005b005b3480156100c257600080fd5b506100cb6101b7565b6040516100d8919061100e565b60405180910390f35b3480156100ed57600080fd5b506100f66101bd565b005b34801561010457600080fd5b5061010d61026a565b005b34801561011b57600080fd5b5061013660048036038101906101319190610c69565b610889565b005b34801561014457600080fd5b5061014d6109cd565b60405161015a9190610f0f565b60405180910390f35b34801561016f57600080fd5b506101786109f3565b6040516101859190610f53565b60405180910390f35b34801561019a57600080fd5b506101b560048036038101906101b09190610ca5565b610a19565b005b60055481565b600460009054906101000a900473ffffffffffffffffffffffffffffffffffffffff1673ffffffffffffffffffffffffffffffffffffffff163373ffffffffffffffffffffffffffffffffffffffff161461024d576040517f08c379a000000000000000000000000000000000000000000000000000000000815260040161024490610f8e565b60405180910390fd5b6000600460156101000a81548160ff021916908315150217905550565b600260005414156102b0576040517f08c379a00000000000000000000000000000000000000000000000000000000081526004016102a790610fee565b60405180910390fd5b600260008190555060011515600460149054906101000a900460ff161515141561030f576040517f08c379a000000000000000000000000000000000000000000000000000000000815260040161030690610fce565b60405180910390fd5b60011515600460159054906101000a900460ff16151514610365576040517f08c379a000000000000000000000000000000000000000000000000000000000815260040161035c90610fae565b60405180910390fd5b4260055411156103aa576040517f08c379a00000000000000000000000000000000000000000000000000000000081526004016103a190610f6e565b60405180910390fd5b6000600267ffffffffffffffff8111156103ed577f4e487b7100000000000000000000000000000000000000000000000000000000600052604160045260246000fd5b60405190808252806020026020018201604052801561041b5781602001602082028036833780820191505090505b509050600360009054906101000a900473ffffffffffffffffffffffffffffffffffffffff168160008151811061047b577f4e487b7100000000000000000000000000000000000000000000000000000000600052603260045260246000fd5b602002602001019073ffffffffffffffffffffffffffffffffffffffff16908173ffffffffffffffffffffffffffffffffffffffff1681525050600260009054906101000a900473ffffffffffffffffffffffffffffffffffffffff1681600181518110610512577f4e487b7100000000000000000000000000000000000000000000000000000000600052603260045260246000fd5b602002602001019073ffffffffffffffffffffffffffffffffffffffff16908173ffffffffffffffffffffffffffffffffffffffff1681525050600060019050600360009054906101000a900473ffffffffffffffffffffffffffffffffffffffff1673ffffffffffffffffffffffffffffffffffffffff1663095ea7b3600160009054906101000a900473ffffffffffffffffffffffffffffffffffffffff16600360009054906101000a900473ffffffffffffffffffffffffffffffffffffffff1673ffffffffffffffffffffffffffffffffffffffff166370a08231306040518263ffffffff1660e01b815260040161060e9190610f0f565b60206040518083038186803b15801561062657600080fd5b505afa15801561063a573d6000803e3d6000fd5b505050506040513d601f19601f8201168201806040525081019061065e9190610cce565b6040518363ffffffff1660e01b815260040161067b929190610f2a565b602060405180830381600087803b15801561069557600080fd5b505af11580156106a9573d6000803e3d6000fd5b505050506040513d601f19601f820116820180604052508101906106cd9190610c40565b50600160009054906101000a900473ffffffffffffffffffffffffffffffffffffffff1673ffffffffffffffffffffffffffffffffffffffff166338ed1739600360009054906101000a900473ffffffffffffffffffffffffffffffffffffffff1673ffffffffffffffffffffffffffffffffffffffff166370a08231306040518263ffffffff1660e01b81526004016107679190610f0f565b60206040518083038186803b15801561077f57600080fd5b505afa158015610793573d6000803e3d6000fd5b505050506040513d601f19601f820116820180604052508101906107b79190610cce565b8385600460009054906101000a900473ffffffffffffffffffffffffffffffffffffffff16610708426107ea9190611153565b6040518663ffffffff1660e01b815260040161080a959493929190611052565b600060405180830381600087803b15801561082457600080fd5b505af1158015610838573d6000803e3d6000fd5b505050506040513d6000823e3d601f19601f820116820180604052508101906108619190610bff565b506001600460146101000a81548160ff02191690831515021790555050506001600081905550565b600460009054906101000a900473ffffffffffffffffffffffffffffffffffffffff1673ffffffffffffffffffffffffffffffffffffffff163373ffffffffffffffffffffffffffffffffffffffff1614610919576040517f08c379a000000000000000000000000000000000000000000000000000000000815260040161091090610f8e565b60405180910390fd5b8173ffffffffffffffffffffffffffffffffffffffff1663a9059cbb600460009054906101000a900473ffffffffffffffffffffffffffffffffffffffff16836040518363ffffffff1660e01b8152600401610976929190610f2a565b602060405180830381600087803b15801561099057600080fd5b505af11580156109a4573d6000803e3d6000fd5b505050506040513d601f19601f820116820180604052508101906109c89190610c40565b505050565b600360009054906101000a900473ffffffffffffffffffffffffffffffffffffffff1681565b600160009054906101000a900473ffffffffffffffffffffffffffffffffffffffff1681565b600460009054906101000a900473ffffffffffffffffffffffffffffffffffffffff1673ffffffffffffffffffffffffffffffffffffffff163373ffffffffffffffffffffffffffffffffffffffff1614610aa9576040517f08c379a0000000000000000000000000000000000000000000000000000000008152600401610aa090610f8e565b60405180910390fd5b600460009054906101000a900473ffffffffffffffffffffffffffffffffffffffff1673ffffffffffffffffffffffffffffffffffffffff166108fc829081150290604051600060405180830381858888f19350505050158015610b11573d6000803e3d6000fd5b5050565b6000610b28610b23846110dd565b6110ac565b90508083825260208201905082856020860282011115610b4757600080fd5b60005b85811015610b775781610b5d8882610bea565b845260208401935060208301925050600181019050610b4a565b5050509392505050565b600082601f830112610b9257600080fd5b8151610ba2848260208601610b15565b91505092915050565b600081519050610bba81611285565b92915050565b600081359050610bcf8161129c565b92915050565b600081359050610be4816112b3565b92915050565b600081519050610bf9816112b3565b92915050565b600060208284031215610c1157600080fd5b600082015167ffffffffffffffff811115610c2b57600080fd5b610c3784828501610b81565b91505092915050565b600060208284031215610c5257600080fd5b6000610c6084828501610bab565b91505092915050565b60008060408385031215610c7c57600080fd5b6000610c8a85828601610bc0565b9250506020610c9b85828601610bd5565b9150509250929050565b600060208284031215610cb757600080fd5b6000610cc584828501610bd5565b91505092915050565b600060208284031215610ce057600080fd5b6000610cee84828501610bea565b91505092915050565b6000610d038383610d0f565b60208301905092915050565b610d18816111a9565b82525050565b610d27816111a9565b82525050565b6000610d3882611119565b610d428185611131565b9350610d4d83611109565b8060005b83811015610d7e578151610d658882610cf7565b9750610d7083611124565b925050600181019050610d51565b5085935050505092915050565b610d9481611203565b82525050565b6000610da7602f83611142565b91507f74696d65206e6f7420656c61737065642c2063616e742065786563757465207460008301527f726164652074696c6c20616674657200000000000000000000000000000000006020830152604082019050919050565b6000610e0d601083611142565b91507f63616c6c6572206e6f74206f776e6572000000000000000000000000000000006000830152602082019050919050565b6000610e4d601483611142565b91507f636f6e747261637420697320696e6163746976650000000000000000000000006000830152602082019050919050565b6000610e8d601f83611142565b91507f74726164652063616e206f6e6c79206265206578656375746564206f6e6365006000830152602082019050919050565b6000610ecd601f83611142565b91507f5265656e7472616e637947756172643a207265656e7472616e742063616c6c006000830152602082019050919050565b610f09816111f9565b82525050565b6000602082019050610f246000830184610d1e565b92915050565b6000604082019050610f3f6000830185610d1e565b610f4c6020830184610f00565b9392505050565b6000602082019050610f686000830184610d8b565b92915050565b60006020820190508181036000830152610f8781610d9a565b9050919050565b60006020820190508181036000830152610fa781610e00565b9050919050565b60006020820190508181036000830152610fc781610e40565b9050919050565b60006020820190508181036000830152610fe781610e80565b9050919050565b6000602082019050818103600083015261100781610ec0565b9050919050565b60006020820190506110236000830184610f00565b92915050565b600060408201905061103e6000830185610f00565b61104b6020830184610d1e565b9392505050565b600060a0820190506110676000830188610f00565b6110746020830187610f00565b81810360408301526110868186610d2d565b90506110956060830185610d1e565b6110a26080830184610f00565b9695505050505050565b6000604051905081810181811067ffffffffffffffff821117156110d3576110d2611256565b5b8060405250919050565b600067ffffffffffffffff8211156110f8576110f7611256565b5b602082029050602081019050919050565b6000819050602082019050919050565b600081519050919050565b6000602082019050919050565b600082825260208201905092915050565b600082825260208201905092915050565b600061115e826111f9565b9150611169836111f9565b9250827fffffffffffffffffffffffffffffffffffffffffffffffffffffffffffffffff0382111561119e5761119d611227565b5b828201905092915050565b60006111b4826111d9565b9050919050565b60008115159050919050565b60006111d2826111a9565b9050919050565b600073ffffffffffffffffffffffffffffffffffffffff82169050919050565b6000819050919050565b600061120e82611215565b9050919050565b6000611220826111d9565b9050919050565b7f4e487b7100000000000000000000000000000000000000000000000000000000600052601160045260246000fd5b7f4e487b7100000000000000000000000000000000000000000000000000000000600052604160045260246000fd5b61128e816111bb565b811461129957600080fd5b50565b6112a5816111c7565b81146112b057600080fd5b50565b6112bc816111f9565b81146112c757600080fd5b5056fea264697066735822122005fc39236f3a67da90a8b41fb47d7ee8ab269b4d2635116f7e0ac16ac83f058064736f6c63430008000033",
  "immutableReferences": {},
  "source": "// SPDX-License-Identifier: MIT\r\npragma solidity ^0.8.0;\r\nimport \"./IUniswapV2.sol\";\r\nimport \"./IERC20.sol\";\r\nimport \"@openzeppelin/contracts/security/ReentrancyGuard.sol\";\r\n\r\n\r\n//wrapper contract autonomy bots call when all instances given are true \r\n\r\ncontract TradeExecutor is ReentrancyGuard {\r\n    IUniswapV2Router02 public UniswapRouter;\r\n    IERC20 DAI;\r\n    address public WETH;\r\n    address owner;\r\n    bool executed;\r\n    // active, contracts the state of contract, active/inactive\r\n    bool active;\r\n    // time after which call can be executed \r\n    uint public time;\r\n\r\n    event receiveether(uint value, address sender);\r\n\r\n    constructor(IERC20 _DAI, address _owner, address _weth, IUniswapV2Router02 _UniswapRouter) {\r\n        DAI = _DAI;\r\n        owner = _owner;\r\n        UniswapRouter = _UniswapRouter;\r\n        WETH = _weth;\r\n        time = block.timestamp + 4 days;\r\n        active = true;\r\n    }\r\n\r\n    modifier onlyOwner() {\r\n        require(msg.sender == owner, \"caller not owner\");\r\n        _;\r\n    }\r\n\r\n    receive() external payable{\r\n        emit receiveether(msg.value, msg.sender);\r\n    }\r\n    \r\n    fallback() external payable {\r\n    \r\n    }\r\n    \r\n\r\n    function execute() public nonReentrant {\r\n        require(executed != true, \"trade can only be executed once\");\r\n        require(active == true, \"contract is inactive\");\r\n        require(time <= block.timestamp, 'time not elasped, cant execute trade till after');\r\n        \r\n        address[] memory path = new address[](2);\r\n        path[0] = WETH;\r\n        path[1] = address(DAI);\r\n        uint256 amountOutMin = 1;\r\n        \r\n        //approve uniswap router to spend weth \r\n        IERC20(WETH).approve(address(UniswapRouter), IERC20(WETH).balanceOf(address(this)));\r\n\r\n        //swap on uniswap\r\n        UniswapRouter.swapExactTokensForTokens(IERC20(WETH).balanceOf(address(this)), amountOutMin, path, owner, block.timestamp+ 30 minutes);\r\n        //mark trade as executed\r\n        executed = true;\r\n    }\r\n    \r\n    function makeInactive() public onlyOwner {\r\n        active = false;\r\n    }\r\n\r\n    function withdrawToken(IERC20 _token, uint amount)public onlyOwner{\r\n        _token.transfer(owner, amount);\r\n    }\r\n\r\n    function withdrawETH(uint amount) public onlyOwner{\r\n        payable(owner).transfer(amount);\r\n    }\r\n}\r\n",
  "sourcePath": "C:\\Users\\f\\Desktop\\autonomy-app\\contracts\\wrapperContract.sol",
  "compiler": {
    "name": "solc",
    "version": "0.8.0+commit.c7dfd78e.Emscripten.clang"
  },
  "schemaVersion": "3.4.2",
  "updatedAt": "2021-08-03T20:57:55.795Z",
  "devdoc": {
    "kind": "dev",
    "methods": {},
    "version": 1
  },
  "userdoc": {
    "kind": "user",
    "methods": {},
    "version": 1
  }
}